:100000000C945D000C9485000C9485000C94850084
:100010000C9485000C9485000C9485000C9485004C
:100020000C9485000C9485000C9485000C9422029D
:100030000C9485000C9485000C9485000C9485002C
:100040000C94D8010C9485000C9485000C948500C8
:100050000C9485000C9485000C9485000C9485000C
:100060000C9485000C94850000000008000201003B
:100070000003040700000000000000000000000072
:10008000250028002B0000000000240027002A0083
:10009000040404040404040402020202020203032E
:1000A0000303030301020408102040800102040836
:1000B0001020010204081020120411241FBECFEFEB
:1000C000D8E0DEBFCDBF11E0A0E0B1E0E4ECFAE0A3
:1000D00002C005900D92A430B107D9F721E0A4E049
:1000E000B1E001C01D92A933B207E1F710E0CDE500
:1000F000D0E004C02197FE010E945A05CC35D107FB
:10010000C9F70E94DE020C9460050C94000090E098
:10011000FC01EC55FF4F249180579F4FFC018491C7
:10012000882399F090E0880F991FFC01EA57FF4F50
:10013000A591B491FC01E458FF4F859194918FB73C
:10014000F894EC91E22BEC938FBF089590E0FC01C2
:10015000E859FF4F2491FC01EC55FF4F3491FC010D
:10016000E057FF4FE491EE23C9F0222339F023300A
:1001700001F1A8F4213019F1223029F1F0E0EE0F5D
:10018000FF1FE458FF4FA591B4918FB7F894EC91FD
:10019000611126C030953E233C938FBF08952730D0
:1001A000A9F02830C9F0243049F7809180008F7D74
:1001B00003C0809180008F7780938000DFCF84B56B
:1001C0008F7784BDDBCF84B58F7DFBCF8091B0006E
:1001D0008F778093B000D2CF8091B0008F7DF9CF20
:1001E0003E2BDACF3FB7F8948091350190913601DC
:1001F000A0913701B091380126B5A89B05C02F3FCB
:1002000019F00196A11DB11D3FBFBA2FA92F982F3C
:100210008827BC01CD01620F711D811D911D42E037
:10022000660F771F881F991F4A95D1F708958F92FF
:100230009F92AF92BF92CF92DF92EF92FF926B01AB
:100240007C010E94F2004B015C01C114D104E10465
:10025000F104B9F00E94F200681979098A099B0932
:10026000683E73408105910580F321E0C21AD108F0
:10027000E108F10888EE880E83E0981EA11CB11CED
:10028000E4CFFF90EF90DF90CF90BF90AF909F9022
:100290008F900895CF92DF92EF92FF92CF93DF93EA
:1002A000EC01603282E07807CCF5653B710514F013
:1002B00064EB70E0898128E830E0281B310987FD74
:1002C0003395220F331F220F331F6901330FEE08BE
:1002D000FF088A8128E532E0281B310987FD339524
:1002E000220F331F220F331F032E000C440B550B1C
:1002F0002C193D094E095F09DB0177FF02C0B0E010
:10030000A0E00E94150524EB30E040E050E00E94A0
:10031000EB04C20ED31EE41EF51EB601E881EC30DC
:1003200070F5298188E890E0821B910927FD93955B
:10033000880F991F880F991F681779077CF02A8109
:1003400088E592E0821B910927FD9395880F991FFC
:10035000880F991F681779070CF4CB010297880F53
:10036000991F4FB7F8942E2F30E0F901EE0FFF1FC1
:10037000E20FF31FEA5FFE4F928381834FBFDF914D
:10038000CF91FF90EF90DF90CF900895892B79F473
:100390001092800082E0809381001092850010927C
:1003A0008400B19A80916F00826080936F000895FD
:1003B0001F920F920FB60F9211242F933F938F939A
:1003C0009F93AF93BF938091310190913201A0919F
:1003D0003301B09134013091300123E0230F2D37E8
:1003E00058F50196A11DB11D209330018093310174
:1003F00090933201A0933301B09334018091350181
:1004000090913601A0913701B09138010196A11D5C
:10041000B11D8093350190933601A0933701B093BD
:100420003801BF91AF919F918F913F912F910F9084
:100430000FBE0F901F90189526E8230F0296A11D5E
:10044000B11DD2CF1F920F920FB60F9211242F938E
:100450003F934F935F936F937F938F939F93AF934C
:10046000BF93CF93DF93EF93FF9380910501C091EA
:100470000401D0E087FF24C0109285001092840010
:10048000809105018F5F8093050180910501082E01
:10049000000C990B8C179D0724F4809105018C307A
:1004A000C4F18091840090918500049680349C4929
:1004B00008F47AC08091840090918500049676C0FB
:1004C00080910501082E000C990B8C179D07C4F62E
:1004D000E09105018E2FEE0F990BFC01EE0FFF1F2F
:1004E000E80FF91FEA5FFE4F808186FFC9CFE091D8
:1004F00005018E2FEE0F990BFC01EE0FFF1FE80F89
:10050000F91FEA5FFE4F808160E08F730E94A600B2
:10051000B7CF2091840030918500E09105018E2FA6
:10052000EE0F990BFC01EE0FFF1FE80FF91FEA5FBA
:10053000FE4F81819281820F931F90938900809357
:100540008800E09105018E2FEE0F990BFC01EE0F54
:10055000FF1FE80FF91FEA5FFE4F808186FF11C081
:10056000E09105018E2FEE0F990BFC01EE0FFF1F9E
:10057000E80FF91FEA5FFE4F808161E08F730E94F0
:10058000A600FF91EF91DF91CF91BF91AF919F9125
:100590008F917F916F915F914F913F912F910F902C
:1005A0000FBE0F901F90189580E49CE990938900EE
:1005B000809388008FEF80930501E3CF789484B512
:1005C000826084BD84B5816084BD85B5826085BD4F
:1005D00085B5816085BD80916E00816080936E00DD
:1005E00010928100809181008260809381008091CF
:1005F0008100816080938100809180008160809380
:1006000080008091B10084608093B1008091B0003F
:1006100081608093B00080917A00846080937A003A
:1006200080917A00826080937A0080917A00816064
:1006300080937A0080917A00806880937A0010928B
:10064000C10080912D018C3008F042C089E00E94E9
:10065000870080912D01282F30E0F901EE0FFF1F58
:10066000E20FF31FEA5FFE4F9081907C99609083C8
:1006700010922E0110922F012CE0622F0E944E0545
:1006800090E0829FB001112430E020E0AB01420FE6
:10069000531FFA01EE0FFF1FE40FF51FEA5FFE4F35
:1006A000408146FD07C02F5F3F4F2C30310571F769
:1006B0000E94C601E0912D018E2F90E0FC01EE0F0B
:1006C000FF1FE80FF91FEA5FFE4F8081806480837F
:1006D00080912A018C3008F042C08AE00E94870095
:1006E00080912A01282F30E0F901EE0FFF1FE20F61
:1006F000F31FEA5FFE4F9081907C9A609083109286
:100700002B0110922C012CE0622F0E944E0590E0EC
:10071000829FB001112430E020E0AB01420F531F53
:10072000FA01EE0FFF1FE40FF51FEA5FFE4F408155
:1007300046FD07C02F5F3F4F2C30310571F70E94F7
:10074000C601E0912A018E2F90E0FC01EE0FFF1F01
:10075000E80FF91FEA5FFE4F8081806480836AE5BD
:1007600070E08DE291E00E944A016AE570E08AE261
:1007700091E00E944A0164EF71E080E090E00E9405
:10078000170180E480937C0080917A0080648093DC
:100790007A0080917A0086FDFCCF6091780070919C
:1007A0007900072E000C880B990B611571058105E6
:1007B000910511F00E94E20485EBC82ED12CE12CAA
:1007C000F12CC0E0D0E00E9493042B013C010E9478
:1007D00093044B015C01C301B201A70196010E9481
:1007E000EB048DE291E00E944A01C501B401A7012A
:1007F00096010E94EB048AE291E00E944A010E9465
:10080000930420EB34E040E050E00E94EB04645D90
:100810007E4F8F4F9F4F0E9417012097A1F20E9499
:100820000000D1CF809104018C3048F591E0980F01
:100830009093040180932D0190E0FC01EE0FFF1FC7
:10084000E80FF91FEA5FFE4F88EB9BE092838183FC
:10085000809104018C30B8F491E0980F90930401DA
:1008600080932A0190E0FC01EE0FFF1FE80FF91FB3
:10087000EA5FFE4F88EB9BE09283818308958FEFC0
:1008800080932D01E5CF8FEF80932A0108958F92F9
:100890009F92AF92BF92CF92DF92EF92FF92CF934F
:1008A000DF93EC01688179818A819B8161157105F3
:1008B0008105910521F464E279ED8BE597E02DE166
:1008C00033EF41E050E00E94EB0449015A019B01E3
:1008D000AC01A7EAB1E40E940A056B017C01ACEE11
:1008E000B4EFA50194010E941805C60ED71EE81E9C
:1008F000F91EF7FE06C081E0C81AD108E10880E8B9
:10090000F80AC882D982EA82FB82C701B6019F77C2
:10091000DF91CF91FF90EF90DF90CF90BF90AF909D
:100920009F908F9008958F929F92AF92BF92CF9297
:10093000DF92EF92FF92609100017091010180912E
:10094000020190910301611571058105910521F462
:1009500064E279ED8BE597E02DE133EF41E050E083
:100960000E94EB0449015A019B01AC01A7EAB1E4E2
:100970000E940A056B017C01ACEEB4EFA501940165
:100980000E941805C60ED71EE81EF91EF7FE06C007
:1009900081E0C81AD108E10880E8F80AC092000195
:1009A000D0920101E0920201F0920301C701B60169
:1009B0009F77FF90EF90DF90CF90BF90AF909F9088
:1009C0008F9008956093000170930101809302015C
:1009D000909303010895052E97FB1EF400940E9446
:1009E000020557FD07D00E941D0507FC03D04EF4F9
:1009F0000C94020550954095309521953F4F4F4FEF
:100A00005F4F089590958095709561957F4F8F4FBA
:100A10009F4F08950E943F05A59F900DB49F900D94
:100A2000A49F800D911D11240895B7FF0C940A0511
:100A30000E940A05821B930B0895A1E21A2EAA1B9D
:100A4000BB1BFD010DC0AA1FBB1FEE1FFF1FA2177E
:100A5000B307E407F50720F0A21BB30BE40BF50B7B
:100A6000661F771F881F991F1A9469F76095709504
:100A7000809590959B01AC01BD01CF010895A29F87
:100A8000B001B39FC001A39F700D811D1124911D62
:100A9000B29F700D811D1124911D0895991B79E05D
:100AA00004C0991F961708F0961B881F7A95C9F7FE
:100AB00080950895EE0FFF1F0590F491E02D0994A5
:040AC000F894FFCFD8
:040AC400010000002D
:00000001FF
